{"abi":[{"type":"receive","stateMutability":"payable"},{"type":"function","name":"COOLDOWN","inputs":[],"outputs":[{"name":"","type":"uint256","internalType":"uint256"}],"stateMutability":"view"},{"type":"function","name":"WITHDRAW_AMOUNT","inputs":[],"outputs":[{"name":"","type":"uint256","internalType":"uint256"}],"stateMutability":"view"},{"type":"function","name":"getBalance","inputs":[],"outputs":[{"name":"","type":"uint256","internalType":"uint256"}],"stateMutability":"view"},{"type":"function","name":"lastWithdrawTime","inputs":[{"name":"","type":"address","internalType":"address"}],"outputs":[{"name":"","type":"uint256","internalType":"uint256"}],"stateMutability":"view"},{"type":"function","name":"withdraw","inputs":[],"outputs":[],"stateMutability":"nonpayable"}],"bytecode":{"object":"0x6080604052348015600e575f5ffd5b506104ea8061001c5f395ff3fe60806040526004361061004d575f3560e01c80631031ec311461005857806312065fe014610094578063205e2d79146100be5780633ccfd60b146100e8578063a2724a4d146100fe57610054565b3661005457005b5f5ffd5b348015610063575f5ffd5b5061007e60048036038101906100799190610318565b610128565b60405161008b919061035b565b60405180910390f35b34801561009f575f5ffd5b506100a861013c565b6040516100b5919061035b565b60405180910390f35b3480156100c9575f5ffd5b506100d2610143565b6040516100df919061035b565b60405180910390f35b3480156100f3575f5ffd5b506100fc61014e565b005b348015610109575f5ffd5b506101126102b3565b60405161011f919061035b565b60405180910390f35b5f602052805f5260405f205f915090505481565b5f47905090565b662386f26fc1000081565b620151805f5f3373ffffffffffffffffffffffffffffffffffffffff1673ffffffffffffffffffffffffffffffffffffffff1681526020019081526020015f205461019991906103a1565b4210156101db576040517f08c379a00000000000000000000000000000000000000000000000000000000081526004016101d29061042e565b60405180910390fd5b662386f26fc10000471015610225576040517f08c379a000000000000000000000000000000000000000000000000000000000815260040161021c90610496565b60405180910390fd5b425f5f3373ffffffffffffffffffffffffffffffffffffffff1673ffffffffffffffffffffffffffffffffffffffff1681526020019081526020015f20819055503373ffffffffffffffffffffffffffffffffffffffff166108fc662386f26fc1000090811502906040515f60405180830381858888f193505050501580156102b0573d5f5f3e3d5ffd5b50565b6201518081565b5f5ffd5b5f73ffffffffffffffffffffffffffffffffffffffff82169050919050565b5f6102e7826102be565b9050919050565b6102f7816102dd565b8114610301575f5ffd5b50565b5f81359050610312816102ee565b92915050565b5f6020828403121561032d5761032c6102ba565b5b5f61033a84828501610304565b91505092915050565b5f819050919050565b61035581610343565b82525050565b5f60208201905061036e5f83018461034c565b92915050565b7f4e487b71000000000000000000000000000000000000000000000000000000005f52601160045260245ffd5b5f6103ab82610343565b91506103b683610343565b92508282019050808211156103ce576103cd610374565b5b92915050565b5f82825260208201905092915050565b7f436f6f6c646f776e2061637469766500000000000000000000000000000000005f82015250565b5f610418600f836103d4565b9150610423826103e4565b602082019050919050565b5f6020820190508181035f8301526104458161040c565b9050919050565b7f496e73756666696369656e74206661756365742062616c616e636500000000005f82015250565b5f610480601b836103d4565b915061048b8261044c565b602082019050919050565b5f6020820190508181035f8301526104ad81610474565b905091905056fea264697066735822122001c7086b5969241c4427d12083ffaf3161adfdc5cea0ef08e23b1ee501239b4164736f6c63430008230033","linkReferences":{}},"methodIdentifiers":{"COOLDOWN()":"a2724a4d","WITHDRAW_AMOUNT()":"205e2d79","getBalance()":"12065fe0","lastWithdrawTime(address)":"1031ec31","withdraw()":"3ccfd60b"},"id":19}